:100000000C9490000C94AF000C94AF000C94AF00D3
:100010000C94AF000C94AF000C94AF000C94AF00A4
:100020000C94AF000C94AF000C94AF000C94AF0094
:100030000C94AF000C9482020C94AF000C94AF00AF
:100040000C94AF000C94AF000C94AF000C94AF0074
:100050000C94AF000C94AF000C94AF000C94AF0064
:100060000C94AF000C94AF000C94AF000C94AF0054
:100070000C94AF000C94AF000C94AF000C94AF0044
:100080000C94AF000C94AF000C94AF000C94AF0034
:100090000C9461030C9444030C94AF000C94AF00D7
:1000A0000C94AF000C94AF000C94D2000C94E300BD
:1000B0000C94AF000C94AF000C94AF000C94AF0004
:1000C0000C94AF000C94AF000C94AF000C94AF00F4
:1000D0000C94AF000C94AF000C94AF000C94AF00E4
:1000E0000C94AF000C94AF000C94AF000C94AF00D4
:1000F0000C94DF010C94AF000C94AF000C94A6019B
:100100000C94AF000C94AF000C94AF000C94AF00B3
:100110000C94AF000C94AF000C94AF000C94AF00A3
:1001200011241FBECFEFD1E4DEBFCDBF12E0A0E0AF
:10013000B2E0EEEAFBE100E00BBF02C007900D92D7
:10014000A031B107D9F717E0A0E1B2E001C01D92DC
:10015000A73AB107E1F70E94D40B0C94D50D0C948B
:10016000000014BE88E10FB6F894809360001092EE
:1001700060000FBE78940C94BD0010929A0780E145
:1001800097E29093A9008093A800E1EAF0E088E06C
:100190008083808182608083E2E7F0E080818260FA
:1001A000808308951F920F920FB60F9211248F93A0
:1001B00080919A078F5F80939A078F910F900FBE5F
:1001C0000F901F9018951F920F920FB60F92112447
:1001D0008F9381E0809310028F910F900FBE0F904C
:1001E0001F90189593E09093420180934201909163
:1001F00041019F718913FBCF089580911B028823D1
:1002000011F086E101C088E00C94F200E9E3F1E02E
:1002100080818160808388E00E94F200EEE6F1E058
:1002200080818062808380818F7E80838FEF809346
:100230004F01EEE4F1E080818860808380818064FA
:100240008083ECE4F1E080818068808381E18093A9
:100250006D011092150210921B0281E0809314022E
:100260000895E5E1F2E090819860908380931B020D
:100270000895E5E1F2E09081916090838093160209
:100280000895E5E1F2E02081226020839093180236
:10029000809317020895E5E1F2E020812460208335
:1002A00090931A028093190208958091140281306C
:1002B00049F481E090E020911502211105C080E011
:1002C00090E002C081E090E08170089588E00E9493
:1002D000F200E9E3F1E080818260808382E0809334
:1002E00014020895E9E3F1E080818D7F80830E940C
:1002F000FD0081E08093140208951F93CF93DF9354
:1003000000D0CDB7DEB7182F89E169839A830E94A8
:10031000F2006981862F8E5F80938001E12F9A81A0
:10032000F92FA1E8B1E002C081918D938E2F811B3E
:100330008617D0F382E08093420183E08093140219
:100340000F900F90DF91CF911F9108951F920F9200
:100350000FB60F9211240BB60F921BBE2F933F9333
:100360004F935F936F937F938F939F93AF93BF93BD
:10037000EF93FF93809141018F71893169F489E096
:100380000E94F20084E080931402809142018295E1
:100390008695877080931302FF91EF91BF91AF9183
:1003A0009F918F917F916F915F914F913F912F918D
:1003B0000F900BBE0F900FBE0F901F9018951F92BD
:1003C0000F920FB60F9211248F9389E08093420110
:1003D000809147018093120280917B0180931102EA
:1003E00085E0809314028F910F900FBE0F901F90A5
:1003F00018951F93CF93DF9300D000D01F92CDB7F5
:10040000DEB7809114028430B1F1853009F447C021
:10041000813009F06EC010911502112309F469C0F2
:1004200088E00E94F20010FF09C0909116029F71AF
:1004300080914801807E892B80934801809115022C
:1004400081FF08C080911702809362018091180299
:10045000809363018091150282FF08C08091190288
:100460008093600180911A02809361010E94FD00D7
:10047000109215023EC0809113020E94FC098091E7
:1004800041018F718930D9F72FC0FC01E058FE4F30
:100490002081FC01E45EFD4F20834F5F01C040E0FE
:1004A00020911102842F90E030E0281739076CF773
:1004B0008CE192E09A8389838091110282508B8330
:1004C000E0911102F0E0E45EFD4F80818C83809129
:1004D00012028A558D83CE0101960E94FB068091FF
:1004E00041018F718930D9F781E0809314020E9415
:1004F000FD000F900F900F900F900F90DF91CF9114
:100500001F9108951F920F920FB60F9211248F938F
:1005100081E080939C028F910F900FBE0F901F90EF
:1005200018959B01AC0184E0220F331F441F551F17
:100530008A95D1F760E078E488EE91E00E941C0D86
:100540002150310941095109BB27A52F942F832F31
:100550008093CD002093CC0082E08093C80088E98E
:100560008093C90086E08093CA0083EB92E0909369
:10057000B2028093B10284E690E09093AE02809341
:10058000AD021092B0021092AF021092AA02109225
:10059000A9021092AC021092AB0288E193E0909312
:1005A000A8028093A70281E090E09093A402809338
:1005B000A3021092A6021092A5021092A00210921D
:1005C0009F021092A2021092A10281E080939E02EB
:1005D00010929D0208952091AF023091B002409197
:1005E000AD025091AE0224173507F9F06091AB02CD
:1005F0007091AC02E091B102F091B202E60FF71FE8
:100600008083CB0101968417950729F09093AC0263
:100610008093AB0204C01092AC021092AB022F5F29
:100620003F4F3093B0022093AF0208959FB7F894E4
:10063000E091A702F091A80220919F023091A002C0
:10064000E20FF31F80812F5F3F4F3093A002209372
:100650009F0240919F025091A0022091A3023091ED
:10066000A4024217530721F41092A00210929F0295
:100670002091A5023091A602215031093093A602A3
:100680002093A5029FBF08951F920F920FB60F925D
:1006900011240BB60F921BBE8F93EF93FF9381E053
:1006A00080939E02E9ECF0E080818F7D8083FF9152
:1006B000EF918F910F900BBE0F900FBE0F901F9078
:1006C00018951F920F920FB60F9211240BB60F922E
:1006D0001BBE2F933F934F938F939F93EF93FF9363
:1006E0008091C8004091CE008C71B1F52091A50297
:1006F0003091A6028091A3029091A4022817390795
:1007000059F1E091A702F091A8028091A102909185
:10071000A202E80FF91F408301969093A2028093F2
:10072000A1022091A1023091A2028091A302909196
:10073000A4022817390721F41092A2021092A102F4
:100740008091A5029091A60201969093A6028093B3
:10075000A50281E080939D02FF91EF919F918F917F
:100760004F913F912F910F900BBE0F900FBE0F90A6
:100770001F9018958091AF029091B002009789F177
:1007800020919E02222369F12091A9023091AA02B0
:10079000E091B102F091B202E20FF31F60812F5F8E
:1007A0003F4F3093AA022093A9024091AD0250918D
:1007B000AE022417350721F41092AA021092A90262
:1007C00001979093B0028093AF029FB7F894609323
:1007D000CE008091C90080628093C90010929E0271
:1007E0009FBF3FB7F89420919D0210929D02809187
:1007F000A5029091A6023FBF21110C94BD0B089554
:1008000010929F071092A00710929C0710929B07CE
:100810001092A2071092A1071092A4071092A307AA
:100820001092A6071092A5070E9431090E94D706D0
:100830000E940C050E946E040C948A0590939C07FC
:1008400080939B070C944B0190939E0780939D0788
:100850000C944101E82FF0E0EE0FFF1FEF55F84F29
:100860007183608308950E942E07882319F081E028
:1008700090E00AC00E94F5098111F9CF0E9473042B
:100880008111F5CF0E945501817008950C94660185
:100890000C9472010E9435070E94180A0C947C0483
:1008A000E0911A03F0911B0315C0228133812817B0
:1008B000390769F4DC01A158BF4F2C912787DC016F
:1008C000AE57BF4F2C91208B22E0248305C00190AE
:1008D000F081E02D309749F70C94360510921B03F8
:1008E00010921A03089581E020911A0330911B039E
:1008F000232B09F480E008950F931F93CF93DF9388
:10090000E0911A03F0911B03EF017EC08C818823D4
:1009100021F0823009F075C058C08C850E94130503
:100920008C01009721F482E08C838F8770C09B83B9
:100930008A8381E08C83F801ED57FF4F80E594E0D6
:1009400091838083F801EE57FF4F898582FB8827CA
:1009500080F980839985F801838590FB80F98387EE
:10096000998593FB992790F990FB82F9877083878B
:1009700080919F078F5F80939F07848780919B075B
:1009800090919C07968785878D819E81908B878724
:1009900098859F708189807F892B818B9F8192951B
:1009A000907F8F70892B818B98012E5E3F4F4C85F5
:1009B0006A857B8550E0C9010E949D0DC801DF91C9
:1009C000CF911F910F910C944C09EC17FD0741F446
:1009D0008881998190931B0380931A030AC0FC01BC
:1009E000808191818C179D07D1F7888199819183AE
:1009F0008083ED85FE85CE01DF91CF911F910F9110
:100A000009940990D881C02D209709F07FCFDF91FC
:100A1000CF911F910F91089510921C031092A10382
:100A200010922604089590911C03992359F09091F7
:100A3000A103992351F090912604911113C022E053
:100A400030E005C020E030E002C021E030E095E871
:100A5000929FF001939FF00D1124E45EFC4F805FA4
:100A6000818302C0E0E0F0E0CF010895FC01108234
:100A7000089595E8899F90011124245E3C4FC90197
:100A80000895FC01DC01A158BF4F1C92DC01A05865
:100A9000BF4F1D921C92DC01AE57BF4F1C92DC0170
:100AA000AD57BF4F1D921C921386AFE9B7E08C91F2
:100AB0008F5F8C93848780919B0790919C0796878A
:100AC0008587108A1786118A0895EBEAF4E040E0E2
:100AD00050E0208131812817390749F486E0849F4E
:100AE0009001859F300D112425553B4F0DC04F5F60
:100AF0005F4F36964436510561F7019619F42DEF94
:100B000036E002C020E030E0C90108950C943605BB
:100B10000C943605EBEAF4E08FEF9FEF918380832E
:100B2000369627E0E330F207C9F708950E9465057D
:100B3000009729F02FEF3FEFFC01318320830895C8
:100B4000EF92FF920F931F93CF93DF93EC010985F0
:100B50001A8517FF05C08D859E850817190741F571
:100B60008D819E81019621F1ED84FE84C7010E9452
:100B70006505FC01009769F08281938180179107D8
:100B800099F0DE01A158BF4F9C918581891760F4CF
:100B900007C08FEF9FEF0E946505FC01F182E082A4
:100BA0001383028383E08483C158DF4F8881858368
:100BB000DF91CF911F910F91FF90EF9008950F93C8
:100BC0001F93CF93DF9300D000D000D0CDB7DEB716
:100BD0008C01FC01878590890E9465059C01009726
:100BE00099F1F801E158FF4F8081811104C083E041
:100BF000F90184830BC0F9018481815084838111C0
:100C000005C08FEF9FEF918380831EC0C9018B5A6F
:100C100094400697CCF0C901069746E0FC01DE013E
:100C2000119601900D924A95E1F746E0F901DC0139
:100C300001900D924A95E1F786E0FE013196D901C7
:100C400001900D928A95E1F726960FB6F894DEBFD3
:100C50000FBECDBFDF91CF911F910F9108958F3FB0
:100C60002FEF9207D1F0EBEAF4E020E030E0408192
:100C700051814817590759F486E0829FF001839FFC
:100C8000F00D1124E555FB4F2281338108C02F5F01
:100C90003F4F36962436310551F72FEF3FEFC9010C
:100CA0000895CF92DF92EF92FF920F931F93CF930D
:100CB000DF938C01FC01E784F088C7010E942F06B6
:100CC0000196B9F0F801ED57FF4F88E895E0918360
:100CD0008083F801EE57FF4F82E08083C801DF91E7
:100CE000CF911F910F91FF90EF90DF90CF900C94D8
:100CF0004C09F801C584D68485E00E941305EC01F7
:100D00000097A1F00E944105FE01ED57FF4F86E8D4
:100D100095E091838083D88ACF8681E08A8BDC8AB4
:100D2000CB8AFE8AED8ACE010E944C09C801DF9170
:100D3000CF911F910F91FF90EF90DF90CF900C9487
:100D40003605DC011596ED91FC911697838194810F
:100D50000C9496050C942F060C943605E7E0F7E00A
:100D600040E0208131812115310529F021503109E0
:100D70003183208341E0359627E0E933F20789F794
:100D800041110C94FF0A0895DC011596ED91FC9138
:100D900016972081211103C00E94D10904C021307F
:100DA00021F40E94A10681E0089580E00895E7E023
:100DB000F7E011821082359687E0E933F807C9F72A
:100DC0001092360784E190E0A0E0B0E080933D0708
:100DD00090933E07A0933F07B093400710924107BE
:100DE0008EEA96E0909343078093420764EC76E0A6
:100DF00080E00C942A04CF93DF93EC01E881F98121
:100E00008181883841F58081813611F0813419F56E
:100E10008A81803100F180510E9413050097D9F03A
:100E200020E2FC0120832B81E158FF4F20832C819D
:100E3000FC01E058FF4F20839C012E5F3F4F4A8109
:100E40006881798150E0C9010E949D0D809136072B
:100E50008F5F80933607DF91CF91089581E0909165
:100E60003607911101C080E008957F928F929F9282
:100E7000AF92BF92CF92DF92EF92FF920F931F93A8
:100E8000CF93DF93CDB7DEB72A970FB6F894DEBFC6
:100E90000FBECDBF80913607882309F496C1B12CCF
:100EA00024E2A22E3CEAC32E36E0D32E42E2842E68
:100EB00053E2752E65E0962E8B2D0E9439058C012C
:100EC000DC018C91823209F4BBC020F4803209F03D
:100ED0006FC107C0833209F45FC1843209F068C171
:100EE0005FC1F801A08287859089019629F4D80115
:100EF0001B968C9180FD5CC120919B0730919C07D3
:100F0000F801858596852817390709F451C183852D
:100F100081FD4EC1C8010E94A005A4E0B7E020E019
:100F200030E06FEF13968D919C911497892B81F18E
:100F3000F801458556858D919C9111974817590761
:100F400041F58485929EF001939EF00D1124EC5F93
:100F5000F84F9281282F291B121634F4828387E9D7
:100F600090E09483838329C120919B0730919C0753
:100F7000D80117968D919C9118972817390709F079
:100F800017C11F968D919C9150970E94960510C194
:100F9000622F2F5F3F4F15962A30310519F66F3FAC
:100FA00009F406C1292D6203F0011124EC5FF84F0A
:100FB000D8011D968D919C911E97918380831C96DC
:100FC0008C91828387E990E09483838387E397E021
:100FD0000E94FF0AF2C020919B0730919C07F80104
:100FE000878590892817390761F085819681019658
:100FF00041F0D8011B968C9182FD03C0C8010E946C
:10100000870920919B0730919C07F80147855089FB
:101010002417350719F04F3F5F4F19F4D8018C9210
:10102000C7C0F801878190852817390709F0C0C02B
:1010300085819681019609F4BBC0D8017C92B8C025
:1010400010920307F801818982958F70E82FF0E0F4
:10105000E430F1050CF05EC0EE0FFF1FEF55F84FC6
:101060000190F081E02D309709F454C0D8011D960D
:101070002D913C911E973A83298351969C915197CB
:101080009F709B838C83A8014E5E5F4F5F834E836E
:1010900011968C91119780518887A158BF4F8C91E0
:1010A0008987D801A058BF4F8C918A87D8011B9699
:1010B0005C91952F937052FF02C080E201C080E0E6
:1010C000892BD8011F964D915C9150974F3F5F4FF0
:1010D00011F444E001C040E0842BD80119964D91F1
:1010E0005C911A972417350711F498E001C090E03D
:1010F000982BD80115962D913C9116972F3F3F4F75
:1011000011F480E101C080E0892B8D83CE0101962E
:10111000099501C080E0F801278130852F3F3F4FBE
:1011200071F421E030E060919B0770919C07D80139
:101130001F964D915C9150976417750711F020E050
:1011400030E02170F801938590FF02C0811102C048
:101150002223F9F083E00E9413057C010097C9F077
:101160000E944105F701ED57FF4FD182C082D8019F
:101170001D962D913C911E97F701308B2787128A7F
:1011800080910307848B1C968C91838BC7010E94EE
:101190004C09D801AC920CC0C8010E94510603C092
:1011A000C8010E943605809136078150809336072A
:1011B000B394B3E0BB1280CE08C0F801278130851C
:1011C0002F3F3F4F09F01DCF06CF2A960FB6F89458
:1011D000DEBF0FBECDBFDF91CF911F910F91FF906A
:1011E000EF90DF90CF90BF90AF909F908F907F90C7
:1011F00008950C943605FF920F931F93CF93DF93BE
:10120000EC0180914607882331F110E005E180E18F
:10121000F82E812F0E943905FC018081843181F4F0
:10122000DF01A058BF4F2D913C91119721503109FA
:101230002D933C93232B21F40083E158FF4FF08240
:101240001F5F133031F7CE01DF91CF911F910F91C6
:10125000FF900C94FF0ADF91CF911F910F91FF90A7
:10126000089510924507109244071092460782E3B2
:1012700090E0A0E0B0E080934D0790934E07A093DC
:101280004F07B0935007109251078BEF98E090935F
:101290005307809352070895CF93DF93EC01FC012D
:1012A000EE57FF4F808191E19883FE01E158FF4F97
:1012B000108280FF03C08FEF9FEF04C080919D07D5
:1012C00090919E079E838D838F8598890E942F061B
:1012D00098878F8320919B0730919C073A872987B5
:1012E0002091A0072F5F2093A0072C83019619F46B
:1012F00081E498E802C081E698E89B838A83809124
:1013000046078F5F80934607DF91CF9108950F9333
:101310001F93CF93DF938C01FC01818180510E9448
:101320001305EC010097C1F1FC01ED57FF4F89EF68
:1013300098E0918380839E012E5F3F4FF8014181A9
:101340000E5F1F4F50E0B801C9010E949D0D81E161
:101350008883FE01E158FF4F108281E498E89B8367
:101360008A838FEF9FEF98878F8380919D0790915D
:101370009E079E838D8380919B0790919C079A87FF
:1013800089878091A0078F5F8093A0078C838091CD
:1013900046078F5F80934607DF91CF911F910F9192
:1013A00008951F93CF93DF93FC01C581D68180916F
:1013B00046078823B1F010E0812F0E943905FC0117
:1013C0008081843159F494858981981307C085E11F
:1013D00080838A81EE57FF4F808303C01F5F1330E5
:1013E00059F7DF91CF911F91089581E090914607C1
:1013F000911101C080E00895E0914407F091450704
:10140000833030F0833031F0853031F481E205C033
:1014100080E003C080E201C081E0DF01A158BF4F3E
:101420008C9383E1808310924507109244070895BE
:10143000CF92DF92EF92FF920F931F93CF93DF93A0
:1014400080914607882309F455C0F12C95E1E92ED7
:1014500024E1D22E05E110E032E1C32E8F2D0E944F
:101460003905EC018881833199F0853179F1813139
:10147000E9F50E945501811139C0D0934507C09309
:101480004407C8826981CE0102960E947D012EC068
:10149000FE01E158FF4F8081811116C04D855E85A8
:1014A00020919B0730919C074217530769F48B8565
:1014B00080FF0AC0D882C058DF4F1983088387E4B1
:1014C00097E00E94FF0A12C0E88210C0CE010E947D
:1014D000DF05FE01ED57FF4F0190F081E02DCE01B9
:1014E000099580914607815080934607F39483E0E5
:1014F000F812B4CFDF91CF911F910F91FF90EF9031
:10150000DF90CF9008950E94B1000E94E90A0E94E6
:1015100006010C9400040E94F9010E944A040C94F4
:101520000E0B0F931F93CF93DF93FC018091540711
:1015300090915507B681A781308521850097D1F11B
:101540004B2F5A2F632F722FDC01C0E0D0E001C077
:10155000D90112960D911D912D913C91159740172F
:1015600051076207730758F4041B150B260B370B42
:1015700012960D931D932D933C9315970BC0401B12
:10158000510B620B730B2D913C911197ED012115BD
:101590003105F1F64283538364837583209739F0D4
:1015A0008881998191838083F983E8830DC0918339
:1015B000808306C011821082B283A3833483258383
:1015C000F0935507E0935407DF91CF911F910F914E
:1015D000089510925507109254070895E09154070A
:1015E000F091550706C0E817F90739F00190F0812E
:1015F000E02D3097C1F780E0089581E00895CF9302
:10160000DF93EC010E94EE0A811105C0CE01DF914B
:10161000CF910C94910ADF91CF910895CF92DF92F0
:10162000EF92FF92CF93DF9380919A078823D1F1B5
:101630008FB7F89420919A0710929A078FBF30E0E5
:10164000AAE0B0E00E94100D6B017C0114C0C41A26
:10165000D50AE60AF70A8881998190935507809305
:1016600054078A85813019F4CE010E94910AEB85D6
:10167000FC85CE010995C0915407D091550720975C
:1016800089F04A815B816C817D81C416D506E606AE
:10169000F706E8F64C195D096E097F094A835B83FA
:1016A0006C837D83DF91CF91FF90EF90DF90CF909F
:1016B000089580915607843021F481E08093560785
:1016C000089587E597E00C94FF0AAF92BF92DF92EE
:1016D000EF92FF920F931F93CF93DF931F92CDB79B
:1016E000DEB7E82ED62E80E199830E94EB0282E0DD
:1016F0000E94EB02AE2C9981B92EF12C11C085010C
:10170000F5018081803121F40E94EB02F0E1FF0EAF
:10171000F50181915F010E94EB02F8018081F80ED2
:101720008A2D8E198D1558F380E10E94EB0283E01B
:101730000E94EB028F2D8B5D0F90DF91CF911F9157
:101740000F91FF90EF90DF90BF90AF900C94EB0261
:10175000FC01A581B6818EB190E189278EB9808583
:1017600059968C93599781855A968C936781858178
:1017700096810E94650B81E008950F931F93CF938C
:10178000DF938C01C0E0D0E003C00E9416032196D5
:10179000C017D107D1F78EB190E289278EB9DF91BA
:1017A000CF911F910F910895CF93DF931F92CDB7E3
:1017B000DEB780E88093610081E0809361000E9441
:1017C000830A60E076E980E090E00E94910216E0F2
:1017D000C12CDD24D394ED2CFD2C812C90E8992E86
:1017E000A12CB12C24E3222E22E1322E0FE030ED89
:1017F000432E37E0532E612C712C0E948B0A0E94DD
:10180000BA0380915607833009F4D5C028F48823A1
:1018100061F0813091F7A4C0863009F4DBC08730D5
:1018200009F4EEC0853049F7CCC021E0209364076D
:10183000109265071092660710926707109268076A
:101840001092690710926A0710926B0710926C074A
:1018500010926D0710926F0710926E07C09270077A
:10186000D0927107E0927207F0927307809274072A
:1018700090927507A0927607B09277073092790719
:101880002092780700937A0710927C0710927B07CA
:1018900010927D0710927E0720937F078CE0809343
:1018A000800710928107109282071092830710928E
:1018B000840710928507109286071092870710926E
:1018C00088071092890710928A0710928B0710924E
:1018D0008C0790E290938D07EBE0E0938E07E4E0B5
:1018E000F2E0AFE8B7E08BE001900D928A95E1F766
:1018F000F0EDFAB980EC8BB96B9A739A6C9A749A82
:101900006D9A759A80E090E029830E941E0484E31A
:1019100092E10E9424048FE00E94390181E00E943C
:10192000310168EA7BE081E00E942A0440925D0771
:1019300050925E0760925F07709260071092610795
:10194000E9E5FBE0F0936307E09362077398298170
:10195000209356078091DC008F7E8093DC004DCF72
:1019600080E090E00E94AA0690937C0780937B071A
:101970000E948E0DAA2797FDA095BA2F809381070C
:1019800090938207A0938307B09384070E948E0DE3
:101990008F779927AA2797FDA095BA2F809385075F
:1019A00090938607A0938707B093880766E384E641
:1019B00097E00E94650B87E597E00E94FF0A84E0AC
:1019C0002CC00E943304811118CF0E94460410934A
:1019D000560713CF6B9873986C9874986D98759898
:1019E00080E00E943101FFEF29E688E1F1502040BC
:1019F0008040E1F700C0000097E090935607FDCECD
:101A00000E9448046B9A739A6C9A749A6D9A759AAC
:101A1000739881E00E94310181E080935607EDCEFA
:101A2000A29FB001B39FC001A39F01D0B29F700DD0
:101A3000811D1124911D0895A1E21A2EAA1BBB1B22
:101A4000FD010DC0AA1FBB1FEE1FFF1FA217B3078A
:101A5000E407F50720F0A21BB30BE40BF50B661FA0
:101A6000771F881F991F1A9469F760957095809564
:101A700090959B01AC01BD01CF0108958F929F927B
:101A8000AF92BF92CF92DF92EF92FF92CF93DF930C
:101A9000EC01688179818A819B81611571058105DD
:101AA000910521F464E279ED8BE597E02DE133EFC8
:101AB00041E050E00E94B90D49015A019B01AC017F
:101AC000A7EAB1E40E94A60D6B017C01ACEEB4EF75
:101AD000A50194010E94B40DC60ED71EE81EF91E82
:101AE000F7FE06C081E0C81AD108E10880E8F80ACC
:101AF000C882D982EA82FB82E894D7F8EE24FF24D8
:101B0000C601DF91CF91FF90EF90DF90CF90BF9013
:101B1000AF909F908F9008950C943E0D80E092E0DE
:101B20000C943E0DA0E0B0E080930002909301027F
:101B3000A0930202B09303020895FB01DC0102C0EE
:101B400001900D9241505040D8F708950E94100D19
:101B5000A59F900DB49F900DA49F800D911D112401
:101B60000895B7FF0C94A60D0E94A60D821B930B3F
:101B70000895052E97FB16F4009407D057FD0DD05D
:101B80000E941C0D07FC09D07EF4909580957095FD
:101B900061957F4F8F4F9F4F089550954095309599
:0E1BA00021953F4F4F4F5F4F0895F894FFCFB0
:101BAE0001000000436F6F7264696E61746F7200A2
:00000001FF
